:100000000C94DF000C9407010C9407010C94070179
:100010000C9407010C9407010C9407010C94070140
:100020000C9407010C9407010C9407010C94070130
:100030000C9407010C9407010C9407010C94070120
:100040000C9424060C9407010C9494060C946E06F0
:100050000C9407010C9407010C9407010C94070100
:100060000C9407010C94070100407A10F35A00A089
:10007000724E18090010A5D4E80000E87648170071
:1000800000E40B54020000CA9A3B000000E1F505B1
:10009000000080969800000040420F000000A086FB
:1000A00001000000102700000000E803000000002D
:1000B0006400000000000A000000000001000000D1
:1000C00000002C76D888DC674F0823DFC1DFAE59EB
:1000D000E1B1B796E5E3E453C63AE651997696E87E
:1000E000E6C28426EB898C9B62ED407C6FFCEFBC02
:1000F0009C9F40F2BAA56FA5F490055A2AF75C932D
:100100006B6CF9676DC11BFCE0E40D47FEF520E662
:10011000B500D0ED902E0300943577050080841E45
:10012000080000204E0A000000C80C333333330FA0
:10013000986E12831141EF8D2114893BE65516CF3D
:10014000FEE6DB18D1844B381BF77C1D901DA4BB49
:10015000E424203284725E228100C9F124ECA1E5FE
:100160003D270000000023002600290000000000B9
:10017000240027002A0000000000250028002B0092
:100180000000000800020100000304070000000056
:100190000000000004040404040404040202020237
:1001A000020203030303030301020408102040803A
:1001B000010204081020010204081020C6061124C0
:1001C0001FBECFEFD8E0DEBFCDBF22E0A2E4B1E09A
:1001D00001C01D92A231B207E1F711E0A0E0B1E049
:1001E000ECE7FDE102C005900D92A234B107D9F70A
:1001F00010E0CFEDD0E004C02197FE010E94C40CB6
:10020000CE3DD107C9F70E9431070C94BC0E0C9467
:100210000000CF92DF92EF92FF921F93CF93DF9374
:10022000EC018E818C3009F44DC038F48B30E1F054
:1002300060E070E080EC9FE73DC085518230C0F700
:100240001A81612F70E0762F662766277F778B8172
:10025000682B90E080E00E94250B2DEC3CEC4CECF0
:100260005DE30E94620B48C06A8170E090E080E02C
:100270000E94250B6B017C01CB81C7FF0AC0AC013A
:100280009B0160E070E080E89FEB0E94570C6B01DF
:100290007C01CF706C2F70E090E080E00E94270B13
:1002A0002DEC3CEC4CEC5DE30E94620BA701960147
:1002B0000E94580CDF91CF911F91FF90EF90DF903B
:1002C000CF9008951A81612F70E090E080E00E9445
:1002D000250B6B017C016B816F7070E090E080E01A
:1002E0000E94270B2DEC3CEC4CEC5DE30E94620B72
:1002F000A70196010E94580C17FFDCCF9058DACF67
:10030000CF93DF9390E0FC01E855FE4F24918C568B
:100310009E4FFC0184918823D1F090E0880F991FB3
:10032000FC01E459FE4FA591B491FC01EA58FE4F3F
:10033000C591D491623071F49FB7F8943C91822FAB
:10034000809583238C93E8812E2B28839FBFDF9198
:10035000CF9108958FB7F894EC912E2B2C938FBFEB
:10036000F6CF3FB7F8948091430190914401A0915A
:100370004501B091460126B5A89B05C02F3F19F055
:100380000196A11DB11D3FBFBA2FA92F982F882715
:10039000BC01CD01620F711D811D911D42E0660FF0
:1003A000771F881F991F4A95D1F708958F929F92C2
:1003B000AF92BF92CF92DF92EF92FF924B015C011E
:1003C0000E94B1016B017C010E94B1016C197D0991
:1003D0008E099F09683E734081059105A8F321E0CD
:1003E000821A9108A108B10888EEC80E83E0D81ED1
:1003F000E11CF11C81149104A104B10429F7FF90C0
:10040000EF90DF90CF90BF90AF909F908F90089526
:10041000AF92BF92CF92DF92EF92FF920F931F9312
:10042000CF93DF936C017B018B01040F151FEB0150
:100430005E01AE18BF08C017D10759F06991D60107
:10044000ED91FC910190F081E02DC6010995892B79
:1004500079F7C501DF91CF911F910F91FF90EF9038
:10046000DF90CF90BF90AF900895FC0144815581FB
:10047000608171818BE491E00C940802FC01538D42
:10048000448D252F30E0842F90E0821B930B54176E
:1004900010F0CF96089501970895FC01918D828DFB
:1004A000981761F0A28DAE0FBF2FB11D5D968C9194
:1004B000928D9F5F9F73928F90E008958FEF9FEFD3
:1004C0000895FC01918D828D981731F0828DE80F8F
:1004D000F11D858D90E008958FEF9FEF0895FC0149
:1004E000918D228D892F90E0805C9F4F821B910916
:1004F0008F73992708958BE491E00E946F0221E0A9
:10050000892B09F420E0822F089580E090E0892B68
:1005100029F00E947B0281110C9400000895FC01D7
:10052000A48DA80FB92FB11DA35ABF4F2C91848D54
:1005300090E001968F739927848FA689B7892C93B1
:10054000A089B1898C91837080648C93938D848D04
:10055000981306C00288F389E02D80818F7D808307
:100560000895EF92FF920F931F93CF93DF93EC01C7
:1005700081E0888F9B8D8C8D98131AC0E889F9894A
:10058000808185FF15C09FB7F894EE89FF8960834D
:10059000E889F98980818370806480839FBF81E0CE
:1005A00090E0DF91CF911F910F91FF90EF90089510
:1005B000F62E0B8D10E00F5F1F4F0F731127E02EEB
:1005C0008C8D8E110CC00FB607FCFACFE889F98923
:1005D000808185FFF5CFCE010E948F02F1CFEB8D98
:1005E000EC0FFD2FF11DE35AFF4FF0829FB7F894F7
:1005F0000B8FEA89FB8980818062CFCFCF93DF9315
:10060000EC01888D8823B9F0AA89BB89E889F9892A
:100610008C9185FD03C0808186FD0DC00FB607FC5F
:10062000F7CF8C9185FFF2CF808185FFEDCFCE0192
:100630000E948F02E9CFDF91CF910895CF92DF9290
:10064000EF92FF92CF93DF93DC011796CC9117972F
:10065000D0E06111DC2F18962C91189730E0220F12
:10066000331F2E593E4F50E040E0F901859194919F
:10067000FC01F080BA0190E080E0EF2DEC23ED1357
:1006800010C04F5F5F4F1D96CD90DD90ED90FC90B8
:1006900050976C157D058E059F0538F36FEF7FEF42
:1006A000CB01DF91CF91FF90EF90DF90CF90089535
:1006B0008F929F92AF92BF92CF92DF92EF92FF9272
:1006C0000F931F93CF93DF93CDB7DEB7C054D140C4
:1006D0000FB6F894DEBF0FBECDBF2FB7F894409190
:1006E0004701509148016091490170914A012FBF23
:1006F000FC0101851285238534856A017B01C01ABE
:10070000D10AE20AF30A97018601003D174021054C
:100710003105B0F4FC018189C05CDE4F0FB6F8945E
:10072000DEBF0FBECDBFDF91CF911F910F91FF9024
:10073000EF90DF90CF90BF90AF909F908F900895F3
:100740008C01FC014187528763877487148213826E
:1007500012821182108262E085810E94800161E034
:1007600070E080E090E00E94D60161E0F8018581B0
:100770000E948001F801858190E0FC01E058FE4F65
:100780002491FC01E855FE4F3491FC01EC56FE4FDC
:10079000E491EE23D9F0222359F0233009F44CC020
:1007A00008F03FC0213009F44DC0223009F44EC09A
:1007B000F0E0EE0FFF1FEA58FE4FA591B4918FB7FE
:1007C000F894EC9130953E233C938FBFF8018681DD
:1007D0008551823008F047C08BE291E10197F1F733
:1007E00062E0F80185810E948001F801828990E031
:1007F0008230910538F0880F991F880F991F05974F
:100800000197F1F7F89460E0C8010E941E036F3F62
:100810007F4F8F4F9F4F71F5F801118A789480E0D8
:100820007BCF2730B1F02830D1F0243009F0C0CF91
:10083000809180008F7D03C0809180008F778093AE
:100840008000B6CF84B58F7784BDB2CF84B58F7D5D
:10085000FBCF8091B0008F778093B000A9CF8091BB
:10086000B0008F7DF9CF64E170E080E090E00E94FD
:10087000D601B6CF61E0C8010E941E036F3F7F4FD3
:100880008F4F9F4F49F2CE0101967C015E019FEB95
:10089000A91A9EEFB90A670160E0C8010E941E0311
:1008A000F601608371838283938361E0C8010E94B3
:1008B0001E03F6016483758386839783F8E0CF0E69
:1008C000D11CAC14BD0441F7789430E020E0F7016E
:1008D00080809180A280B380448155816681778138
:1008E000FFEF8F169F06AF06BF0631F04F3F8FEF29
:1008F00058076807780719F4F801118A90CFF901B1
:1009000083E0F595E7958A95E1F7E00FF11F808187
:10091000880F84169506A606B706F0F080832F5F31
:100920003F4FF8E0EF0EF11C2832310581F6F80157
:10093000448120818181280F3327331F8281280F32
:10094000311D8381820F932F911D99274817190616
:1009500099F681E0818BE0CE8160E0CFCF92DF928B
:10096000EF92FF92CF93DF93EC010E94580388230C
:1009700041F08E818B3028F08D3040F085518230EF
:1009800030F160E070E080EC9FE71AC0698170E0B0
:1009900090E080E00E94270B2DEC3CEC4CEC5DE3FA
:1009A0000E94620B6B017C01688170E090E080E046
:1009B0000E94270B9B01AC01C701B6010E94580C95
:1009C000DF91CF91FF90EF90DF90CF9008956881F5
:1009D000798176276727762790E080E00E94250BB3
:1009E0002DEC3CEC4CEC5DE30E94620BE9CFCF9325
:1009F000DF9343E050E068E171E08BE491E00E9416
:100A00000802EC0142E050E06CE171E08BE491E01F
:100A10000E9408028C0F9D1FDF91CF9108950F93C4
:100A20001F93CF93DF93EC0188819981009759F050
:100A30002A813B812617370730F081E0DF91CF9183
:100A40001F910F9108958B016F5F7F4F0E94EF0DF3
:100A5000009759F0998388831B830A832C813D81F9
:100A6000232B59F7FC011082E8CF80E0E7CFEF920B
:100A7000FF920F931F93CF93DF936115710541F49C
:100A800080E0DF91CF911F910F91FF90EF9008953B
:100A900041155105B1F07B01EC010C811D81040F62
:100AA000151FB8010E940F05882351F32881398151
:100AB0008C819D81B701820F931F0E94B50E1D830B
:100AC0000C8381E0DECFCF93DF93EC0188819981A5
:100AD000009711F00E94660D198218821D821C82F7
:100AE0001B821A82DF91CF910895EF92FF920F93AC
:100AF0001F93CF93DF93EC017B01198218821B8235
:100B00001A821D821C82FB0101900020E9F73197B7
:100B10008F01061B170BB8010E940F05811109C038
:100B2000CE01DF91CF911F910F91FF90EF900C9428
:100B300063051D830C83B70188819981DF91CF9173
:100B40001F910F91FF90EF900C94B50ECF92DF9212
:100B5000EF92FF920F931F93CF93DF93CDB7DEB742
:100B6000A1970FB6F894DEBF0FBECDBF7C01CB01BD
:100B7000BA01F70111821082138212821582148247
:100B80008E010F5F1F4F22E044E00E94D0086C01ED
:100B9000009771F0FC0101900020E9F731978F0177
:100BA000081B190BB801C7010E940F05811112C063
:100BB000C7010E946305A1960FB6F894DEBF0FBE71
:100BC000CDBFDF91CF911F910F91FF90EF90DF90FC
:100BD000CF900895F70115830483B6018081918138
:100BE0000E94B50EE8CFCF93DF93EC01FB0101909B
:100BF0000020E9F73197AF01461B570B0E943705DC
:100C0000811103C0CE010E946305CE01DF91CF9117
:100C10000895CF93DF93EC01FB01448155816081FE
:100C200071810E943705811103C0CE010E946305C6
:100C3000CE01DF91CF910895FC01808191810097D1
:100C400011F00C94660D08951F920F920FB60F923B
:100C500011242F933F938F939F93AF93BF938091D2
:100C6000470190914801A0914901B0914A0130910A
:100C7000420123E0230F2D3758F50196A11DB11D28
:100C8000209342018093470190934801A09349012A
:100C9000B0934A018091430190914401A091450194
:100CA000B09146010196A11DB11D8093430190931F
:100CB0004401A0934501B0934601BF91AF919F912C
:100CC0008F913F912F910F900FBE0F901F9018950D
:100CD00026E8230F0296A11DB11DD2CF1F920F92BD
:100CE0000FB60F9211242F933F934F935F936F93FF
:100CF0007F938F939F93AF93BF93EF93FF938BE477
:100D000091E00E948F02FF91EF91BF91AF919F916F
:100D10008F917F916F915F914F913F912F910F90A4
:100D20000FBE0F901F9018951F920F920FB60F9243
:100D300011242F938F939F93EF93FF93E0915B0187
:100D4000F0915C018081E0916101F091620182FD8E
:100D50001BC09081809164018F5F8F73209165012A
:100D6000821741F0E0916401F0E0E55BFE4F958F62
:100D700080936401FF91EF919F918F912F910F903C
:100D80000FBE0F901F9018958081F4CFCF93DF9303
:100D9000EBE4F1E01382128288EE93E0A0E0B0E091
:100DA00084839583A683B7838AE091E091838083CF
:100DB00085EC90E09587848784EC90E09787868720
:100DC00080EC90E0918B808B81EC90E0938B828B18
:100DD00082EC90E0958B848B86EC90E0978B868BF1
:100DE000118E128E138E148EABEFB1E0D3E01596F8
:100DF000DC931597C6E11696CC9316972BEA31E053
:100E0000F901849117968C93179787E991E0FC017B
:100E1000449118964C93189740E85EE360E070E0C8
:100E20001D964D935D936D937C935097A8EEB1E022
:100E30001596DC9315971696CC931697F901249185
:100E400017962C931797FC01849118968C931897FA
:100E50001D964D935D936D937C935097DF91CF9149
:100E60000895CF93DF93CDB7DEB760970FB6F894B0
:100E7000DEBF0FBECDBF789484B5826084BD84B5DB
:100E8000816084BD85B5826085BD85B5816085BD85
:100E900080916E00816080936E001092810080913D
:100EA00081008260809381008091810081608093C5
:100EB0008100809180008160809380008091B100EA
:100EC00084608093B1008091B00081608093B00015
:100ED00080917A00846080937A0080917A008260A9
:100EE00080937A0080917A00816080937A0080916B
:100EF0007A00806880937A001092C10061E082E0FD
:100F00000E94800161E083E00E948001E0915B012A
:100F1000F0915C0182E08083E0915701F0915801EB
:100F20001082E0915901F0915A0180E18083109282
:100F30006301E0915F01F091600186E08083E091C0
:100F40005D01F0915E01808180618083E0915D01AF
:100F5000F0915E01808188608083E0915D01F09175
:100F60005E01808180688083E0915D01F0915E0187
:100F700080818F7D808362E0809100020E948001E9
:100F80002FB7F8948091470190914801A0914901B1
:100F9000B0914A012FBF805D9740A109B1098093AC
:100FA000040290930502A0930602B093070217E390
:100FB00010930D0262E08091ED010E9480012FB735
:100FC000F8948091470190914801A0914901B09116
:100FD0004A012FBF805D9740A109B1098093F101BB
:100FE0009093F201A093F301B093F4011093FA01EE
:100FF00000E010E08BEF91E00E94AE042B013C0179
:101000008BEF91E00E945803812C912C90ECA92E3B
:101010009FE7B92E882331F08BEF91E00E94090100
:101020004B015C0188EE91E00E94AE046D877E87E3
:101030008F87988B88EE91E00E945803882309F4EB
:10104000A8C088EE91E00E9409016B017C01B30108
:10105000A201CE0101960E94A6056FE171E0CE01CA
:1010600007960E947505BE016F5F7F4FCE01079600
:101070000E94090666E271E00E94F3050E943502B3
:10108000CE0107960E941C06CE0101960E941C0606
:10109000B501A401CE0101960E94A60568E271E0A7
:1010A000CE0107960E947505BE016F5F7F4FCE018E
:1010B00007960E9409066FE271E00E94F3050E9404
:1010C0003502CE0107960E941C06CE0101960E94B1
:1010D0001C060E94F70460ED77E080E090E00E943B
:1010E000D6014D855E856F857889CE0101960E9477
:1010F000A60563E371E0CE0107960E947505BE0167
:101100006F5F7F4FCE0107960E94090666E271E08D
:101110000E94F3050E943502CE0107960E941C062C
:10112000CE0101960E941C06B701A601CE010196D0
:101130000E94A6056AE371E0CE0107960E9475053C
:10114000BE016F5F7F4FCE0107960E9409066FE2D6
:1011500071E00E94F3050E943502CE0107960E94BD
:101160001C06CE0101960E941C060E94F70460ED49
:1011700077E080E090E00E94D6010115110509F4A6
:1011800039CF0E947B02882309F434CF0E940000EB
:1011900031CFC12CD12C80ECE82E8FE7F82E57CF21
:1011A000EF920F931F93CF93DF93E80134E047FD55
:1011B00034E1042E000C550B57FF03C051954195A7
:1011C0005109E32E022F242FAE010E94EE08CE011A
:1011D000DF91CF911F910F91EF900895A9E0B0E0BA
:1011E000E4EFF8E00C94260C6A01F22EB02E102FDA
:1011F000FBE3AF2EA01608F41BE31F5F012F27E0CF
:10120000AE014F5F5F4F0E944D0ABC018981982F4C
:101210009970913009F43FC09BE2E1FC04C09E2D1F
:101220009170E0FC3AC05E2D5071E82FE87083FFAA
:1012300046C084E0911101C083E0EF2DE81B8F15BB
:1012400008F0E0E0D6018E2F20E2552351F19923DA
:1012500029F0D6019C93C60101966C0196012D5F81
:101260003F4FE2FE24C08EE4D6018C9391E41196A8
:101270009C93119712968C93D9018E2F90E2811135
:101280001BC0E20FF32FF11D10828EEF9FEF299606
:10129000ECE00C94420C9DE2C6CF90E2C4CF2D93BB
:1012A00081508111FCCFCE0ED11CE0E0D0CF8EE674
:1012B000D6018C9391E6DBCF9D938150E0CF482FF0
:1012C000447082FF3DC084E0911101C083E08F151E
:1012D00010F4EF2DE81BD6018E2F20E2552309F1E3
:1012E000992329F0D6019C93C60101966C019601C1
:1012F0002D5F3F4FE2FE1BC089E4D6018C938EE444
:1013000011968C93119786E412968C93D9018E2FA7
:1013100090E2882309F4B5CF9D938150FACF2D93A5
:1013200081508111FCCFCE0ED11CE0E0D9CF89E6EF
:10133000D6018C938EE611968C93119786E6E4CFB6
:101340009B0177FF02C030E020E0A1E0B0E0911106
:1013500002C0B0E0A0E0F9013196AE0FBF1F8B2CA8
:10136000912CBB2009F461C05401EFEFAE1ABE0A04
:10137000AA0DBB1DFA161B0619F014F04F2D4A1BBF
:10138000511188C0E3FC59C07601A42FB0E2A1112D
:101390004FC0C40ED11C992309F45BC040E0D601B4
:1013A0001196F60190836D01552309F448C0012F71
:1013B000060F9A81582F507184FF03C0913309F4AE
:1013C000015010160CF047C0093008F008E0EEE2BA
:1013D000FE2E5B01A01AB1088501919481949108B9
:1013E0002F3F320729F4D601FC92F60131966F01A6
:1013F0006217730794F1021713077CF5DB01A21B38
:10140000B30BAA24A394B12CAC0EBD1EAA0DBB1D18
:1014100011968C9121503109D60111962815390564
:10142000F4F0F60180836D01DBCFB12CA12CA0CFAD
:10143000F701B1937F01A150AACF9111B0CFD6018E
:10144000942F50E302C05D9391509111FCCFC40ED4
:10145000D11C40E0ACCF01E0BACF80E3DBCF621714
:10146000730731F4963388F4953311F4552369F0FA
:10147000F6018083FD01842F90E2811108C0A40F42
:10148000B11D1C9290E080E002CF81E3F1CF9193F7
:101490008150F3CF911183CF8ACF283008F027E015
:1014A0003327DA01990F311D87FD916000966105A0
:1014B000710539F432602E5F3D9330E32A95E1F7F0
:1014C00008959F3F30F080387105610509F03C5F59
:1014D0003C5F3D93913008F08068911DDF93CF937E
:1014E0001F930F93FF92EF92192F987F9695E92FF4
:1014F00096959695E90FFF27EE53FF4F99273327CF
:10150000EE24FF24A701E70105900894079428F42E
:10151000360FE71EF81E491F511D660F771F881FE3
:10152000991F0694A1F70590079428F4E70EF81E7A
:10153000491F561FC11D770F881F991F661F0694EC
:10154000A1F70590079428F4F80E491F561FC71FEE
:10155000D11D880F991F661F771F0694A1F705906C
:10156000079420F4490F561FC71FD81F990F661FF5
:10157000771F881F0694A9F784911095177041F082
:10158000D695C79557954795F794E7941A95C1F75F
:10159000E8E6F0E068941590159135916591959184
:1015A00005907FE27395E118F10A430B560BC90BC6
:1015B000D009C0F7E10CF11E431F561FC91FD01DF3
:1015C0007EF4703311F48A95E6CFE894015030F040
:1015D000080F0AF40027021708F4202F2395022F82
:1015E0007A3328F079E37D932A95E9F710C07D934B
:1015F0002A9589F6069497956795379517951794C8
:10160000E118F10A430B560BC90BD00998F023954A
:101610007E9173957A3308F070E37C932013B8F7CA
:101620007E9170617D9330F0839571E37D9370E3DB
:101630002A95E1F71124EF90FF900F911F91CF9120
:10164000DF91992787FD90950895E89409C097FB4D
:101650003EF490958095709561957F4F8F4F9F4F89
:101660009923A9F0F92F96E9BB279395F6958795CD
:1016700077956795B795F111F8CFFAF4BB0F11F490
:1016800060FF1BC06F5F7F4F8F4F9F4F16C0882337
:1016900011F096E911C0772321F09EE8872F762F6D
:1016A00005C0662371F096E8862F70E060E02AF0AE
:1016B0009A95660F771F881FDAF7880F969587959A
:1016C00097F908950E94750B0C94E60B0E94D80BB5
:1016D00038F00E94DF0B20F0952311F00C94CF0B13
:1016E0000C94D50B11240C941A0C0E94F70B70F378
:1016F000959FC1F3950F50E0551F629FF001729FB7
:10170000BB27F00DB11D639FAA27F00DB11DAA1FC5
:10171000649F6627B00DA11D661F829F2227B00D12
:10172000A11D621F739FB00DA11D621F839FA00D9D
:10173000611D221F749F3327A00D611D231F849FED
:10174000600D211D822F762F6A2F11249F57504044
:101750009AF0F1F088234AF0EE0FFF1FBB1F661FBF
:10176000771F881F91505040A9F79E3F510580F088
:101770000C94CF0B0C941A0C5F3FE4F3983ED4F317
:10178000869577956795B795F795E7959F5FC1F72C
:10179000FE2B880F911D9695879597F9089597F9D7
:1017A0009F6780E870E060E008959FEF80EC089507
:1017B00000240A9416161706180609060895002430
:1017C0000A9412161306140605060895092E0394AA
:1017D000000C11F4882352F0BB0F40F4BF2B11F41E
:1017E00060FF04C06F5F7F4F8F4F9F4F089557FD7D
:1017F0009058440F551F59F05F3F71F04795880F7F
:1018000097FB991F61F09F3F79F087950895121615
:1018100013061406551FF2CF4695F1DF08C01616C1
:1018200017061806991FF1CF869571056105089472
:101830000895E894BB2766277727CB0197F9089589
:101840002F923F924F925F926F927F928F929F92D0
:10185000AF92BF92CF92DF92EF92FF920F931F93BE
:10186000CF93DF93CDB7DEB7CA1BDB0B0FB6F8946F
:10187000DEBF0FBECDBF09942A88398848885F84AF
:101880006E847D848C849B84AA84B984C884DF8020
:10189000EE80FD800C811B81AA81B981CE0FD11D04
:1018A0000FB6F894DEBF0FBECDBFED0108955058BE
:1018B000BB27AA270E946F0C0C94E60B0E94D80B42
:1018C00038F00E94DF0B20F039F49F3F19F426F422
:1018D0000C94D50B0EF4E095E7FB0C94CF0BE92F9D
:1018E0000E94F70B58F3BA1762077307840795072E
:1018F00020F079F4A6F50C94190C0EF4E0950B2E5B
:10190000BA2FA02D0B01B90190010C01CA01A00151
:101910001124FF27591B99F0593F50F4503E68F1AC
:101920001A16F040A22F232F342F4427585FF3CFED
:10193000469537952795A795F0405395C9F77EF4BE
:101940001F16BA0B620B730B840BBAF09150A1F007
:10195000FF0FBB1F661F771F881FC2F70EC0BA0F8D
:10196000621F731F841F48F4879577956795B79515
:10197000F7959E3F08F0B0CF9395880F08F0992710
:10198000EE0F979587950895EE0FFF1F0590F49140
:10199000E02D09940F931F93CF93DF93823091052D
:1019A00010F482E090E0E0911002F091110230E03A
:1019B00020E0B0E0A0E0309799F42115310509F45A
:1019C0004AC0281B390B24303105D8F58A819B8108
:1019D0006115710589F1FB0193838283FE0111C0BA
:1019E000408151810281138148175907E0F048175F
:1019F000590799F4109761F012960C931297139669
:101A00001C933296CF01DF91CF911F910F910895D2
:101A10000093100210931102F4CF2115310551F0FB
:101A20004217530738F0A901DB019A01BD01DF011C
:101A3000F801C1CFEF01F9CF90931102809310020A
:101A4000CDCFFE01E20FF31F819391932250310914
:101A500039832883D7CF20910E0230910F02232B98
:101A600041F4209102013091030130930F02209341
:101A70000E0220910001309101012115310541F440
:101A80002DB73EB74091040150910501241B350B41
:101A9000E0910E02F0910F02E217F307A0F42E1B63
:101AA0003F0B2817390778F0AC014E5F5F4F2417C2
:101AB000350748F04E0F5F1F50930F0240930E0200
:101AC000819391939FCFF0E0E0E09CCFCF93DF93A1
:101AD0000097E9F0FC01329713821282A091100264
:101AE000B0911102ED0130E020E01097A1F42081C7
:101AF0003181820F931F20910E0230910F0228171F
:101B0000390709F061C0F0930F02E0930E02DF91F4
:101B1000CF910895EA01CE17DF07E8F54A815B818E
:101B20009E0141155105B1F7E901FB83EA83499113
:101B30005991C40FD51FEC17FD0761F48081918185
:101B40000296840F951FE90199838883828193818E
:101B50009B838A83F0E0E0E012968D919C9113972D
:101B60000097B9F52D913C911197CD010296820F06
:101B7000931F20910E0230910F022817390739F672
:101B8000309751F51092110210921002B0930F028B
:101B9000A0930E02BCCFD383C28340815181840FB6
:101BA000951FC817D90761F44E5F5F4F88819981EF
:101BB000480F591F518340838A819B81938382837D
:101BC0002115310509F0B0CFF0931102E093100216
:101BD0009ECFFD01DC01C0CF13821282D7CFB0E0CF
:101BE000A0E0E5EFFDE00C94220C8C01009751F48D
:101BF000CB010E94CA0C8C01C801CDB7DEB7E0E171
:101C00000C943E0CFC01E60FF71F9C012250310999
:101C1000E217F30708F49DC0D901CD91DC9111972B
:101C2000C617D70798F0C530D10530F3CE01049719
:101C30008617970708F3C61BD70B2297C193D1933A
:101C40006D937C93CF010E94660DD6CF5B01AC1AD9
:101C5000BD0A4C018C0E9D1EA0911002B091110284
:101C6000512C412CF12CE12C109731F580910E0272
:101C700090910F028815990509F05CC04616570629
:101C800008F058C08091000190910101009741F443
:101C90008DB79EB74091040150910501841B950BAF
:101CA000E817F90708F055C0F0930F02E0930E0211
:101CB000F90171836083A0CF8D919C911197129649
:101CC0006C90129713967C901397A815B90559F547
:101CD0006C0142E0C40ED11CCA14DB0420F1AC013B
:101CE0004A195B09DA011296159780F062827382B5
:101CF00051834083D9016D937C93E114F10471F019
:101D0000D7011396FC93EE93129776CF22968C0F01
:101D10009D1FF90191838083F301EFCFF0931102AE
:101D2000E093100269CF4816590608F42C017D0192
:101D3000D3019ACFCB010E94CA0C7C01009749F0D5
:101D4000AE01B8010E94AC0EC8010E94660D870169
:101D500053CF10E000E050CFFB01DC0102C0019046
:101D60000D9241505040D8F70895FB01DC010190DD
:0C1D70000D920020E1F70895F894FFCFD9
:101D7C0000001202800000000000B10208023E02C6
:101D8C00FE026F024D0261022D2D2D000D0A00483E
:101D9C00756D69313D00250054656D70313D004312
:101DAC00C2B00048756D69323D0054656D70323DAE
:021DBC00000025
:00000001FF
