:100000000C94E2000C940A010C940A010C940A016D
:100010000C940A010C940A010C940A010C940A0134
:100020000C940A010C940A010C940A010C940A0124
:100030000C940A010C940A010C940A010C940A0114
:100040000C94C5040C940A010C9435050C940F050E
:100050000C940A010C940A010C940A010C940A01F4
:100060000C940A010C940A0100407A10F35A00A083
:10007000724E18090010A5D4E80000E87648170071
:1000800000E40B54020000CA9A3B000000E1F505B1
:10009000000080969800000040420F000000A086FB
:1000A00001000000102700000000E803000000002D
:1000B0006400000000000A000000000001000000D1
:1000C00000002C76D888DC674F0823DFC1DFAE59EB
:1000D000E1B1B796E5E3E453C63AE651997696E87E
:1000E000E6C28426EB898C9B62ED407C6FFCEFBC02
:1000F0009C9F40F2BAA56FA5F490055A2AF75C932D
:100100006B6CF9676DC11BFCE0E40D47FEF520E662
:10011000B500D0ED902E0300943577050080841E45
:10012000080000204E0A000000C80C333333330FA0
:10013000986E12831141EF8D2114893BE65516CF3D
:10014000FEE6DB18D1844B381BF77C1D901DA4BB49
:10015000E424203284725E228100C9F124ECA1E5FE
:100160003D277374617274000000000024002700B2
:100170002A0000000000250028002B0000000008D5
:10018000000201000003040700000000000000005E
:1001900000000000230026002900040404040404D5
:1001A0000404020202020202030303030303010226
:1001B00004081020408001020408102001020408F5
:1001C0001020670511241FBECFEFD8E0DEBFCDBFE2
:1001D00021E0AAE2B1E001C01D92A73EB207E1F71B
:1001E00011E0A0E0B1E0E4E8FBE102C005900D926F
:1001F000AA32B107D9F710E0C2EED0E004C02197CF
:10020000FE010E94C80BC13ED107C9F70E94B40588
:100210000C94C00D0C940000CF92DF92EF92FF92ED
:10022000CF93DF93B091D701A0E08111AB2F8091E4
:10023000D80190E0880F991FAC0140575E4FC090E5
:10024000DD01D090DE01E090DF01F090E00130E0D0
:1002500020E0FA01C591D491E881B90190E080E0F5
:10026000EB23EA130AC02F5F3F4F6C157D058E0507
:100270009F0578F36FEF7FEFCB01DF91CF91FF9078
:10028000EF90DF90CF900895CF93DF9390E0FC0143
:10029000E255FE4F249186569E4FFC01849188239F
:1002A000D1F090E0880F991FFC01E859FE4FA5910D
:1002B000B491FC01EE58FE4FC591D491623071F4B7
:1002C0009FB7F8943C91822F809583238C93E8818B
:1002D0002E2B28839FBFDF91CF9108958FB7F8947D
:1002E000EC912E2B2C938FBFF6CF3FB7F8948091D3
:1002F0002B0190912C01A0912D01B0912E0126B5DA
:10030000A89B05C02F3F19F00196A11DB11D3FBF4D
:10031000BA2FA92F982F8827BC01CD01620F711D1C
:10032000811D911D42E0660F771F881F991F4A9516
:10033000D1F708958F929F92AF92BF92CF92DF92A2
:10034000EF92FF924B015C010E9475016B017C01F1
:100350000E9475016C197D098E099F09683E7340E2
:1003600081059105A8F321E0821A9108A108B1083E
:1003700088EEC80E83E0D81EE11CF11C81149104A4
:10038000A104B10429F7FF90EF90DF90CF90BF90C8
:10039000AF909F908F9008958F929F92AF92BF924F
:1003A000EF92FF920F931F93CF93DF93CDB7DEB7FA
:1003B000C054D1400FB6F894DEBF0FBECDBF2FB7EB
:1003C000F89480912F0190913001A0913101B0916A
:1003D00032012FBF4091D9015091DA016091DB01C8
:1003E0007091DC018C019D01041B150B260B370B52
:1003F000B901A801403D574061057105A0F4809105
:10040000E101C05CDE4F0FB6F894DEBF0FBECDBF7A
:10041000DF91CF911F910F91FF90EF90BF90AF9020
:100420009F908F9008958093D9019093DA01A093C3
:10043000DB01B093DC011092D4011092D301109231
:10044000D2011092D1011092D00162E08091D501C9
:100450000E94440161E070E080E090E00E949A0117
:1004600061E08091D5010E9444018091D50190E026
:10047000FC01E458FE4F2491FC01E255FE4F3491FB
:10048000FC01E656FE4FE491EE23D9F0222359F009
:10049000233009F44BC008F03EC0213009F44CC0B1
:1004A000223009F44DC0F0E0EE0FFF1FEE58FE4F72
:1004B000A591B4918FB7F894EC9130953E233C937D
:1004C0008FBF8091D6018551823008F046C08BE203
:1004D00091E10197F1F762E08091D5010E9444011A
:1004E0008091E20190E08230910538F0880F991FE9
:1004F000880F991F05970197F1F7F89480E00E9403
:100500000C016F3F7F4F8F4F9F4F71F51092E101AC
:10051000789480E076CF2730B1F02830D1F02430C5
:1005200009F0C1CF809180008F7D03C08091800051
:100530008F7780938000B7CF84B58F7784BDB3CF9A
:1005400084B58F7DFBCF8091B0008F778093B00012
:10055000AACF8091B0008F7DF9CF64E170E080E098
:1005600090E00E949A01B7CF81E00E940C016F3F9A
:100570007F4F8F4F9F4F51F2CE0101967C015E015C
:100580009FEBA91A9EEFB90A870180E00E940C0137
:10059000F801608371838283938381E00E940C0160
:1005A000F8016483758386839783085F1F4FA016C5
:1005B000B10659F7789430E020E0F701808091800F
:1005C000A280B3804481558166817781FFEF8F16C9
:1005D0009F06AF06BF0631F04F3F0FEF5007600791
:1005E000700719F41092E10194CFF90183E0F595B9
:1005F000E7958A95E1F7E053FE4F8081880F8416D6
:100600009506A606B70618F180832F5F3F4F18E0C6
:10061000E10EF11C2832310581F64091D401209180
:10062000D0018091D101280F3327331F8091D2014F
:10063000280F311D8091D301820F932F911D99278F
:100640004817190679F681E08093E101DACE8160DE
:10065000DBCFAF92BF92CF92DF92EF92FF920F93D8
:100660001F93CF93DF936C017B018B01040F151F48
:10067000EB015E01AE18BF08C017D10759F06991B0
:10068000D601ED91FC910190F081E02DC601099514
:10069000892B79F7C501DF91CF911F910F91FF90C1
:1006A000EF90DF90CF90BF90AF900895FC01538DF5
:1006B000448D252F30E0842F90E0821B930B54173C
:1006C00010F0CF96089501970895FC01918D828DC9
:1006D000981761F0A28DAE0FBF2FB11D5D968C9162
:1006E000928D9F5F9F73928F90E008958FEF9FEFA1
:1006F0000895FC01918D828D981731F0828DE80F5D
:10070000F11D858D90E008958FEF9FEF0895FC0116
:10071000918D228D892F90E0805C9F4F821B9109E3
:100720008F739927089583E391E00E94870321E066
:10073000892B09F420E0822F089580E090E0892B36
:1007400029F00E94930381110C9400000895FC018C
:10075000A48DA80FB92FB11DA35ABF4F2C91848D22
:1007600090E001968F739927848FA689B7892C937F
:10077000A089B1898C91837080648C93938D848DD2
:10078000981306C00288F389E02D80818F7D8083D5
:100790000895EF92FF920F931F93CF93DF93EC0195
:1007A00081E0888F9B8D8C8D98131AC0E889F98918
:1007B000808185FF15C09FB7F894EE89FF8960831B
:1007C000E889F98980818370806480839FBF81E09C
:1007D00090E0DF91CF911F910F91FF90EF900895DE
:1007E000F62E0B8D10E00F5F1F4F0F731127E02EB9
:1007F0008C8D8E110CC00FB607FCFACFE889F989F1
:10080000808185FFF5CFCE010E94A703F1CFEB8D4C
:10081000EC0FFD2FF11DE35AFF4FF0829FB7F894C4
:100820000B8FEA89FB8980818062CFCFCF93DF93E2
:10083000EC01888D8823B9F0AA89BB89E889F989F8
:100840008C9185FD03C0808186FD0DC00FB607FC2D
:10085000F7CF8C9185FFF2CF808185FFEDCFCE0160
:100860000E94A703E9CFDF91CF9108950F931F93C3
:10087000CF93DF93EC0188819981009759F02A8109
:100880003B812617370730F081E0DF91CF911F9130
:100890000F9108958B016F5F7F4F0E94F30C0097BB
:1008A00059F0998388831B830A832C813D81232BF4
:1008B00059F7FC011082E8CF80E0E7CFEF92FF927A
:1008C0000F931F93CF93DF936115710541F480E07F
:1008D000DF91CF911F910F91FF90EF9008954115F7
:1008E0005105B1F07B01EC010C811D81040F151F36
:1008F000B8010E943604882351F3288139818C8104
:100900009D81B701820F931F0E94B90D1D830C8337
:1009100081E0DECFCF93DF93EC018881998100974E
:1009200011F00E946A0C198218821D821C821B829F
:100930001A82DF91CF910895EF92FF920F931F9348
:10094000CF93DF93EC017B018A01BA010E94360448
:1009500081110BC0CE010E948A04CE01DF91CF919C
:100960001F910F91FF90EF9008951D830C83B701A5
:10097000888199810E94B90DF0CFFC01808191811D
:10098000009711F00C946A0C08951F920F920FB605
:100990000F9211242F933F938F939F93AF93BF9305
:1009A00080912F0190913001A0913101B0913201DD
:1009B00030912A0123E0230F2D3758F50196A11D10
:1009C000B11D20932A0180932F0190933001A093B1
:1009D0003101B093320180912B0190912C01A091B3
:1009E0002D01B0912E010196A11DB11D80932B0107
:1009F00090932C01A0932D01B0932E01BF91AF9144
:100A00009F918F913F912F910F900FBE0F901F904C
:100A1000189526E8230F0296A11DB11DD2CF1F9273
:100A20000F920FB60F9211242F933F934F935F9322
:100A30006F937F938F939F93AF93BF93EF93FF93A6
:100A400083E391E00E94A703FF91EF91BF91AF91E3
:100A50009F918F917F916F915F914F913F912F91D6
:100A60000F900FBE0F901F9018951F920F920FB608
:100A70000F9211242F938F939F93EF93FF93E09105
:100A80004301F09144018081E0914901F0914A01D4
:100A900082FD1BC0908180914C018F5F8F732091EC
:100AA0004D01821741F0E0914C01F0E0ED5CFE4F0A
:100AB000958F80934C01FF91EF919F918F912F9192
:100AC0000F900FBE0F901F9018958081F4CFE3E335
:100AD000F1E01382128288EE93E0A0E0B0E084831C
:100AE0009583A683B7838AE091E09183808385EC28
:100AF00090E09587848784EC90E09787868780ECE8
:100B000090E0918B808B81EC90E0938B828B82ECD8
:100B100090E0958B848B86EC90E0978B868B118E82
:100B2000128E138E148EA0EDB1E082E015968C9398
:100B300015978BE016968C931697E0EBF1E0E49115
:100B40001796EC931797ECE9F1E0E4911896EC9383
:100B5000189740E85EE360E070E01D964D935D936A
:100B60006D937C9350970895CF93DF93CDB7DEB705
:100B7000AD970FB6F894DEBF0FBECDBF789484B5A5
:100B8000826084BD84B5816084BD85B5826085BD89
:100B900085B5816085BD80916E00816080936E0017
:100BA0001092810080918100826080938100809109
:100BB00081008160809381008091800081608093BA
:100BC00080008091B10084608093B1008091B0007A
:100BD00081608093B00080917A00846080937A0075
:100BE00080917A00826080937A0080917A0081609F
:100BF00080937A0080917A00806880937A001092C6
:100C0000C100E0914301F091440182E08083E091D2
:100C10003F01F09140011082E0914101F0914201C9
:100C20008FEC808310924B01E0914701F0914801D5
:100C300086E08083E0914501F091460180818061EA
:100C40008083E0914501F091460180818860808336
:100C5000E0914501F0914601808180688083E091B8
:100C60004501F091460180818F7D808302E611E08D
:100C7000F8016491662341F083E391E00E94C90387
:100C80000F5F1F4F892BA1F742E050E068E171E050
:100C900083E391E00E94290362E08091D5010E94E4
:100CA00044012FB7F89480912F0190913001A091C9
:100CB0003101B09132012FBF805D9740A109B10988
:100CC0008093D9019093DA01A093DB01B093DC010A
:100CD00087E38093E20130E0A32E30E0B32E68EE8C
:100CE00073E080E090E00E949A010E94CC0188238A
:100CF00049F08091D6018B3028F08D3050F085512D
:100D00008230C0F1412C512C20EC622E2FE7722E44
:100D10001EC06091D10170E090E080E00E942B0A3B
:100D20002DEC3CEC4CEC5DE30E94660A6B017C010F
:100D30006091D00170E090E080E00E942B0A9B015E
:100D4000AC01C701B6010E945C0B2B013C010E9463
:100D5000CC01882341F08091D6018C3009F4F5C094
:100D6000D8F48B3091F1C12CD12C80ECE82E8FE798
:100D7000F82E55C06091D0017091D1017627672778
:100D8000762790E080E00E94290A2DEC3CEC4CECA8
:100D90005DE30E94660AD9CF8551823020F7109119
:100DA000D201612F70E0762F662766277F778091CA
:100DB000D301682B90E080E00E94290A2DEC3CECE6
:100DC0004CEC5DE30E94660ADCC06091D20170E0E9
:100DD00090E080E00E94290A6B017C011091D30110
:100DE00017FF0AC0AC019B0160E070E080E89FEB58
:100DF0000E945B0B6B017C011F70612F70E090E023
:100E000080E00E942B0A2DEC3CEC4CEC5DE30E9450
:100E1000660AA70196010E945C0B6B017C011BA274
:100E20001AA21DA21CA21FA21EA28E010F5F1F4F9D
:100E300022E044E0C301B2010E94D407009709F404
:100E4000A9C0FC0101900020E9F73197AF01481BD0
:100E5000590BBC01CE0182960E949C0419A618A6CB
:100E60001BA61AA61DA61CA68E010F5F1F4F22E00F
:100E700044E0C701B6010E94D407009709F48FC06F
:100E8000FC0101900020E9F73197AF01481B590B95
:100E9000BC01CE0188960E949C041A8219821C8291
:100EA0001B821E821D8246E050E06BE171E0CE01A4
:100EB00001960E949C044CA55DA568A579A5CE016C
:100EC00001960E945E04811104C0CE0101960E9429
:100ED0008A0447E050E062E271E0CE0101960E9490
:100EE0005E04811104C0CE0101960E948A044EA1C5
:100EF0005FA16AA17BA1CE0101960E945E048111CF
:100F000004C0CE0101960E948A044D815E816981F0
:100F10007A8183E391E00E942903CE0101960E9429
:100F2000BD04CE0188960E94BD04CE0182960E9427
:100F3000BD04A114B10409F4D2CE0E949303882306
:100F400009F4CDCE0E940000CACE1091D201612FCB
:100F500070E090E080E00E94290A6B017C016091C2
:100F6000D3016F7070E090E080E00E942B0A2DECBE
:100F70003CEC4CEC5DE30E94660AA70196010E94DE
:100F80005C0B6B017C0117FF4ACFF7FAF094F7F87E
:100F9000F09445CFCE0182960E948A045FCFCE01A5
:100FA00088960E948A0479CFEF920F931F93CF9374
:100FB000DF93E80134E047FD34E1042E000C550BCB
:100FC00057FF03C0519541955109E32E022F242F5D
:100FD000AE010E94F207CE01DF91CF911F910F91D8
:100FE000EF900895A9E0B0E0E8EFF7E00C942A0B49
:100FF0006A01F22EB02E102FFBE3AF2EA01608F4DC
:101000001BE31F5F012F27E0AE014F5F5F4F0E9480
:101010005109BC018981982F9970913009F43FC022
:101020009BE2E1FC04C09E2D9170E0FC3AC05E2D75
:101030005071E82FE87083FF46C084E0911101C031
:1010400083E0EF2DE81B8F1508F0E0E0D6018E2F2E
:1010500020E2552351F1992329F0D6019C93C60132
:1010600001966C0196012D5F3F4FE2FE24C08EE495
:10107000D6018C9391E411969C93119712968C93C0
:10108000D9018E2F90E281111BC0E20FF32FF11DC9
:1010900010828EEF9FEF2996ECE00C94460B9DE2B8
:1010A000C6CF90E2C4CF2D9381508111FCCFCE0EDC
:1010B000D11CE0E0D0CF8EE6D6018C9391E6DBCF59
:1010C0009D938150E0CF482F447082FF3DC084E063
:1010D000911101C083E08F1510F4EF2DE81BD601AC
:1010E0008E2F20E2552309F1992329F0D6019C93F4
:1010F000C60101966C0196012D5F3F4FE2FE1BC0B9
:1011000089E4D6018C938EE411968C93119786E432
:1011100012968C93D9018E2F90E2882309F4B5CFD3
:101120009D938150FACF2D9381508111FCCFCE0E2B
:10113000D11CE0E0D9CF89E6D6018C938EE61196DA
:101140008C93119786E6E4CF9B0177FF02C030E0D5
:1011500020E0A1E0B0E0911102C0B0E0A0E0F90110
:101160003196AE0FBF1F8B2C912CBB2009F461C0B0
:101170005401EFEFAE1ABE0AAA0DBB1DFA161B06EC
:1011800019F014F04F2D4A1B511188C0E3FC59C0CF
:101190007601A42FB0E2A1114FC0C40ED11C992337
:1011A00009F45BC040E0D6011196F60190836D0111
:1011B000552309F448C0012F060F9A81582F50710A
:1011C00084FF03C0913309F4015010160CF047C09E
:1011D000093008F008E0EEE2FE2E5B01A01AB1082B
:1011E00085019194819491082F3F320729F4D6010B
:1011F000FC92F60131966F016217730794F10217A2
:1012000013077CF5DB01A21BB30BAA24A394B12C1A
:10121000AC0EBD1EAA0DBB1D11968C91215031093B
:10122000D601119628153905F4F0F60180836D0179
:10123000DBCFB12CA12CA0CFF701B1937F01A1503E
:10124000AACF9111B0CFD601942F50E302C05D9385
:1012500091509111FCCFC40ED11C40E0ACCF01E005
:10126000BACF80E3DBCF6217730731F4963388F48B
:10127000953311F4552369F0F6018083FD01842F25
:1012800090E2811108C0A40FB11D1C9290E080E093
:1012900002CF81E3F1CF91938150F3CF911183CFAE
:1012A0008ACF283008F027E03327DA01990F311D63
:1012B00087FD916000966105710539F432602E5FFB
:1012C0003D9330E32A95E1F708959F3F30F0803851
:1012D0007105610509F03C5F3C5F3D93913008F07A
:1012E0008068911DDF93CF931F930F93FF92EF922E
:1012F000192F987F9695E92F96959695E90FFF27D8
:10130000EE53FF4F99273327EE24FF24A701E7016F
:1013100005900894079428F4360FE71EF81E491F1D
:10132000511D660F771F881F991F0694A1F705901E
:10133000079428F4E70EF81E491F561FC11D770FAA
:10134000881F991F661F0694A1F70590079428F43B
:10135000F80E491F561FC71FD11D880F991F661F02
:10136000771F0694A1F70590079420F4490F561FA4
:10137000C71FD81F990F661F771F881F0694A9F7EC
:1013800084911095177041F0D695C795579547955C
:10139000F794E7941A95C1F7E8E6F0E068941590A1
:1013A000159135916591959105907FE27395E118BE
:1013B000F10A430B560BC90BD009C0F7E10CF11E23
:1013C000431F561FC91FD01D7EF4703311F48A9538
:1013D000E6CFE894015030F0080F0AF40027021716
:1013E00008F4202F2395022F7A3328F079E37D9398
:1013F0002A95E9F710C07D932A9589F6069497956A
:101400006795379517951794E118F10A430B560B1A
:10141000C90BD00998F023957E9173957A3308F023
:1014200070E37C932013B8F77E9170617D9330F068
:10143000839571E37D9370E32A95E1F71124EF9092
:10144000FF900F911F91CF91DF91992787FD909584
:101450000895E89409C097FB3EF4909580957095A7
:1014600061957F4F8F4F9F4F9923A9F0F92F96E9F0
:10147000BB279395F695879577956795B795F11165
:10148000F8CFFAF4BB0F11F460FF1BC06F5F7F4F02
:101490008F4F9F4F16C0882311F096E911C0772314
:1014A00021F09EE8872F762F05C0662371F096E81D
:1014B000862F70E060E02AF09A95660F771F881FEC
:1014C000DAF7880F9695879597F908950E94790A1B
:1014D0000C94EA0A0E94DC0A38F00E94E30A20F029
:1014E000952311F00C94D30A0C94D90A11240C946E
:1014F0001E0B0E94FB0A70F3959FC1F3950F50E0FD
:10150000551F629FF001729FBB27F00DB11D639FB5
:10151000AA27F00DB11DAA1F649F6627B00DA11D5B
:10152000661F829F2227B00DA11D621F739FB00D01
:10153000A11D621F839FA00D611D221F749F332771
:10154000A00D611D231F849F600D211D822F762F0A
:101550006A2F11249F5750409AF0F1F088234AF0E7
:10156000EE0FFF1FBB1F661F771F881F9150504053
:10157000A9F79E3F510580F00C94D30A0C941E0BE2
:101580005F3FE4F3983ED4F3869577956795B795DA
:10159000F795E7959F5FC1F7FE2B880F911D9695F4
:1015A000879597F9089597F99F6780E870E060E064
:1015B00008959FEF80EC089500240A9416161706EC
:1015C00018060906089500240A9412161306140634
:1015D00005060895092E0394000C11F4882352F097
:1015E000BB0F40F4BF2B11F460FF04C06F5F7F4F4F
:1015F0008F4F9F4F089557FD9058440F551F59F036
:101600005F3F71F04795880F97FB991F61F09F3FEF
:1016100079F087950895121613061406551FF2CF18
:101620004695F1DF08C0161617061806991FF1CF68
:1016300086957105610508940895E894BB2766278F
:101640007727CB0197F908952F923F924F925F929F
:101650006F927F928F929F92AF92BF92CF92DF92C2
:10166000EF92FF920F931F93CF93DF93CDB7DEB727
:10167000CA1BDB0B0FB6F894DEBF0FBECDBF0994BB
:101680002A88398848885F846E847D848C849B8412
:10169000AA84B984C884DF80EE80FD800C811B8120
:1016A000AA81B981CE0FD11D0FB6F894DEBF0FBE4F
:1016B000CDBFED0108955058BB27AA270E94730B98
:1016C0000C94EA0A0E94DC0A38F00E94E30A20F037
:1016D00039F49F3F19F426F40C94D90A0EF4E095DE
:1016E000E7FB0C94D30AE92F0E94FB0A58F3BA17C0
:1016F000620773078407950720F079F4A6F50C9428
:101700001D0B0EF4E0950B2EBA2FA02D0B01B90185
:1017100090010C01CA01A0011124FF27591B99F067
:10172000593F50F4503E68F11A16F040A22F232F73
:10173000342F4427585FF3CF469537952795A795C3
:10174000F0405395C9F77EF41F16BA0B620B730B6A
:10175000840BBAF09150A1F0FF0FBB1F661F771FDB
:10176000881FC2F70EC0BA0F621F731F841F48F490
:10177000879577956795B795F7959E3F08F0B0CF19
:101780009395880F08F09927EE0F97958795089500
:10179000EE0FFF1F0590F491E02D09940F931F9316
:1017A000CF93DF938230910510F482E090E0E091D6
:1017B000E501F091E60130E020E0B0E0A0E03097F4
:1017C00099F42115310509F44AC0281B390B24303E
:1017D0003105D8F58A819B816115710589F1FB017D
:1017E00093838283FE0111C0408151810281138164
:1017F00048175907E0F04817590799F4109761F016
:1018000012960C93129713961C933296CF01DF9188
:10181000CF911F910F9108950093E5011093E60178
:10182000F4CF2115310551F04217530738F0A901C3
:10183000DB019A01BD01DF01F801C1CFEF01F9CF52
:101840009093E6018093E501CDCFFE01E20FF31FF7
:10185000819391932250310939832883D7CF2091E6
:10186000E3013091E401232B41F4209102013091F6
:1018700003013093E4012093E301209100013091B2
:1018800001012115310541F42DB73EB74091040106
:1018900050910501241B350BE091E301F091E40127
:1018A000E217F307A0F42E1B3F0B2817390778F037
:1018B000AC014E5F5F4F2417350748F04E0F5F1F96
:1018C0005093E4014093E301819391939FCFF0E023
:1018D000E0E09CCFCF93DF930097E9F0FC013297D3
:1018E00013821282A091E501B091E601ED0130E092
:1018F00020E01097A1F420813181820F931F209165
:10190000E3013091E4012817390709F061C0F09331
:10191000E401E093E301DF91CF910895EA01CE174E
:10192000DF07E8F54A815B819E0141155105B1F75A
:10193000E901FB83EA8349915991C40FD51FEC1744
:10194000FD0761F4808191810296840F951FE90162
:1019500099838883828193819B838A83F0E0E0E08E
:1019600012968D919C9113970097B9F52D913C910A
:101970001197CD010296820F931F2091E3013091C0
:10198000E4012817390739F6309751F51092E6012E
:101990001092E501B093E401A093E301BCCFD3839F
:1019A000C28340815181840F951FC817D90761F404
:1019B0004E5F5F4F88819981480F591F5183408343
:1019C0008A819B81938382832115310509F0B0CFF1
:1019D000F093E601E093E5019ECFFD01DC01C0CF6D
:1019E00013821282D7CFB0E0A0E0E9EFFCE00C94C4
:1019F000260B8C01009751F4CB010E94CE0B8C0179
:101A0000C801CDB7DEB7E0E10C94420BFC01E60F54
:101A1000F71F9C0122503109E217F30708F49DC01B
:101A2000D901CD91DC911197C617D70798F0C53031
:101A3000D10530F3CE0104978617970708F3C61B2C
:101A4000D70B2297C193D1936D937C93CF010E94C2
:101A50006A0CD6CF5B01AC1ABD0A4C018C0E9D1EE0
:101A6000A091E501B091E601512C412CF12CE12C23
:101A7000109731F58091E3019091E4018815990563
:101A800009F05CC04616570608F058C08091000166
:101A900090910101009741F48DB79EB740910401E8
:101AA00050910501841B950BE817F90708F055C004
:101AB000F093E401E093E301F90171836083A0CF27
:101AC0008D919C91119712966C90129713967C9021
:101AD0001397A815B90559F56C0142E0C40ED11C45
:101AE000CA14DB0420F1AC014A195B09DA01129631
:101AF000159780F06282738251834083D9016D9380
:101B00007C93E114F10471F0D7011396FC93EE93EA
:101B1000129776CF22968C0F9D1FF90191838083B7
:101B2000F301EFCFF093E601E093E50169CF4816AA
:101B3000590608F42C017D01D3019ACFCB010E94F4
:101B4000CE0B7C01009749F0AE01B8010E94B00DA8
:101B5000C8010E946A0C870153CF10E000E050CF0B
:101B6000FB01DC0102C001900D9241505040D8F7BA
:101B70000895FB01DC0101900D920020E1F708952A
:041B8000F894FFCF07
:101B84000000E701800000000000C9032903560398
:101B940016048703650379030D0A0074656D7031BB
:0A1BA4003D002068756D69313D00B9
:00000001FF
